:1000000010C02AC029C028C027C026C025C024C0CF
:1000100023C022C021C020C01FC01FC01DC01CC0E3
:100020001BC011241FBECFE5D1E0DEBFCDBF10E065
:10003000A0E6B0E0EAECF0E002C005900D92A03638
:10004000B107D9F710E0A0E6B0E001C01D92A036DC
:10005000B107E1F718D037C0D3CF1F920F920FB678
:100060000F9211248F93EF93FF93E5E2F0E08081EC
:1000700086BF80818CBFFF91EF918F910F900FBE53
:100080000F901F901895E7E3F0E0808183608083F4
:10009000E6E4F0E080E88083108283EE80BF81E0B8
:1000A00083BF81E187B98EEE86B97894E5E5F0E00B
:1000B0008081877E80838081806280838895808133
:0A00C0008F7D8083F5CFF894FFCF09
:00000001FF
